:020000040800F2
:10000000A82C002055070008D1070008D1070008D8
:10001000D1070008D1070008D10700080000000040
:10002000000000000000000000000000D1070008F0
:10003000D107000800000000D1070008491C000893
:10004000D1070008D1070008D1070008D107000830
:10005000D1070008D1070008F12F0008D1070008D8
:10006000D1070008D1070008D1070008D107000810
:10007000D1070008D1070008D1070008D107000800
:10008000D1070008D1070008D1070008D1070008F0
:10009000D1070008D1070008D1070008D1070008E0
:1000A000D1070008D1070008D1070008D1070008D0
:1000B000D1070008D1070008D1070008D1070008C0
:1000C000D1070008D1070008D1070008D1070008B0
:1000D000D1070008D1070008D1070008391D000822
:1000E000D1070008D1070008D1070008D107000890
:1000F000D1070008D1070008D1070008D107000880
:10010000D1070008D1070008DD010008D107000869
:10011000D1070008D1070008D1070008D10700085F
:10012000D1070008D1070008D1070008D10700084F
:10013000D1070008D1070008D1070008D10700083F
:10014000D1070008D1070008D1070008D10700082F
:10015000D1070008D1070008D1070008D10700081F
:10016000D1070008D1070008D1070008D10700080F
:10017000D1070008D1070008D1070008D1070008FF
:10018000D1070008D107000810B5054C237833B912
:10019000044810B10448AFF300800121217010BD64
:1001A000E808002000000000B8BD000808B5064BB4
:1001B0001BB106480649AFF300800648016811B13B
:1001C000054A02B1904708BD00000000B8BD000814
:1001D000EC080020E00800200000000098B500AF07
:1001E0004FF44060C4F200004FF0100103F078FDBE
:1001F0000346002B40D040F60813C2F200031C68EF
:100200004FF44060C4F2000003F05EFD03469AB272
:1002100040F61013C2F2000323F8142004F1010287
:1002200040F60813C2F200031A604FF44060C4F2B3
:1002300000004FF0100103F083FD40F60813C2F2F6
:1002400000031B68012B17D940F61013C2F20003FC
:100250001B886FEA03039AB240F61013C2F2000340
:100260005B88D3189BB203F101039BB21A4640F698
:100270000C13C2F200031A6098BD00BF80B58AB0AB
:1002800000AF786039604FF000037B624FF00003ED
:100290003B624FF00003FB614FF00003BB617B68E2
:1002A0001B8A9BB27B627B6A23F440537B623B6870
:1002B000DB887A6A13437B627B6A9AB27B681A8214
:1002C0007B689B899BB27B627B6A23F4B05323F0EB
:1002D0000C037B623B689A883B681B8913439AB284
:1002E0003B685B8913439BB27A6A13437B627B6AE8
:1002F0009AB27B689A817B689B8A9BB27B627B6A9D
:1003000023F440737B623B689B897A6A13437B6268
:100310007B6A9AB27B689A8207F10803184602F05A
:1003200017FA7A684FF48053C4F201039A4206D058
:100330007A684FF4A053C4F201039A4202D17B6958
:100340003B6201E03B693B627B689B899BB29BB24D
:100350001BB2002B0FDA3A6A13464FEA83039B184D
:100360004FEA83029A183B681B684FEA4303B2FBCB
:10037000F3F3FB610EE03A6A13464FEA83039B18DE
:100380004FEA83029A183B681B684FEA8303B2FB6B
:10039000F3F3FB61FA6948F21F53C5F2EB13A3FBB9
:1003A00002134FEA53134FEA03137B627B6A4FEA4F
:1003B00013134FF0640202FB03F3FA69D31ABB6113
:1003C0007B689B899BB29BB21BB2002B12DABB6984
:1003D0004FEAC30303F1320248F21F53C5F2EB1395
:1003E000A3FB02134FEA531303F007037A6A134384
:1003F0007B6211E0BB694FEA031303F1320248F25A
:100400001F53C5F2EB13A3FB02134FEA531303F080
:100410000F037A6A13437B627B6A9AB27B681A8104
:1004200007F12807BD4680BD80B483B000AF786077
:100430000B46FB70FB78002B08D07B689B899BB236
:1004400043F400539AB27B689A8107E07B689B89EA
:100450009BB223F400539AB27B689A8107F10C0790
:10046000BD4680BC704700BF80B582B000AF7860E9
:100470000B467B804FF44063C4F202034FF480626A
:100480001A837B884FEAC3534FEAD3539AB27B68EF
:100490009A8000BF4FF49040C4F200004FF040013A
:1004A00000F0C6F80346002BF4D04FF44063C4F2CA
:1004B00002034FF480625A8307F10807BD4680BDEE
:1004C00080B582B000AF78600B46FB7000BF7868E3
:1004D0004FF0800100F0ACF80346002BF7D0FB781A
:1004E000DBB278681946FFF7BFFF07F10807BD4682
:1004F00080BD00BF80B582B000AF7860396009E090
:100500003B681B783A6802F101023A607868194644
:10051000FFF7D6FF3B681B78002BF1D107F10807E6
:10052000BD4680BD80B58AB000AFF860B9607A6022
:1005300007F11403B86819467A6802F017FF07F14B
:100540001403F8681946FFF7D5FF07F12807BD46E1
:1005500080BD00BF80B58CB000AFF86087ED000BA8
:1005600007F1100318464BF69411C0F60001D7E9C5
:10057000002304F079F907F11003F8681946FFF732
:10058000B9FF07F13007BD4680BD00BF80B487B01A
:1005900000AF786013460A467A807B704FF0000304
:1005A0003B614FF00003FB604FF00003BB604FF076
:1005B00000037B617B687B617B88DBB24FEA53136E
:1005C000DBB23B617B8803F01F03FB60FB684FF0ED
:1005D000010202FA03F3BB603B69012B04D17B6982
:1005E00003F10C037B610BE03B69022B04D17B69B7
:1005F00003F110037B6103E07B6903F114037B616A
:100600007B78002B06D07B697A691168BA680A4347
:100610001A6007E07B697A691168BA686FEA0202BA
:100620000A401A6007F11C07BD4680BC704700BF36
:1006300080B485B000AF78600B467B804FF000033C
:10064000FB737B681B889AB27B8813409BB2002B9C
:1006500003D04FF00103FB7302E04FF00003FB7384
:10066000FB7B184607F11407BD4680BC704700BFEE
:1006700080B487B000AF78600B467B804FF00003FA
:10068000FB604FF000037B614FF00003BB604FF055
:100690000003FB747B88DBB24FEA5313DBB2BB6011
:1006A0007B8803F01F037B617B694FF0010202FA34
:1006B00003F37B61BB68012B06D17B689B899BB2EE
:1006C0007A6913407B610FE0BB68022B06D17B681F
:1006D0001B8A9BB27A6913407B6105E07B689B8A29
:1006E0009BB27A6913407B617B884FEA13239BB2EC
:1006F000FB60FB684FF0010202FA03F3FB607B68CA
:100700001B889BB2FA681340FB607B69002B06D004
:10071000FB68002B03D04FF00103FB7402E04FF0A5
:100720000003FB74FB7C184607F11C07BD4680BC28
:10073000704700BF80B483B000AF0346FB714FF039
:100740002003C4F20E23FA791A6007F10C07BD46A4
:1007500080BC704780B582B000AF4BF6C053C0F686
:1007600000037B6040F20003C2F200033B600BE039
:100770007B681A683B681A603B6803F104033B60BE
:100780007B6803F104037B603A6840F6E403C2F23D
:1007900000039A42ECD30B480B494FF00002884209
:1007A000B8BF40F8042BFFF6FAAFDFF8200001686D
:1007B00041F47001016000F007FC07F10807BD4635
:1007C00080BD0000E8080020A40C002088ED00E0B7
:1007D00080B400AFFEE700BF80B483B000AF034633
:1007E0003960FB7197F90730002B10DA4FF46D4335
:1007F000CEF20003FA7902F00F02A2F104013A6886
:10080000D2B24FEA0212D2B25B181A760DE04FF460
:100810006143CEF2000397F907103A68D2B24FEA6B
:100820000212D2B25B1883F8002307F10C07BD4611
:1008300080BC704780B582B000AF78607A686FF096
:100840007F439A4202D94FF001031FE04EF210039A
:10085000CEF200037A6822F07F4202F1FF325A6042
:100860004FF0FF304FF00F01FFF7B6FF4EF21003CD
:10087000CEF200034FF000029A604EF21003CEF267
:1008800000034FF007021A604FF00003184607F10B
:100890000807BD4680BD00BF80B582B000AF4FF0F5
:1008A00000604FF0000102F09FFE4FF4C06002F0C4
:1008B00015FE4FF027033B714FF000037B714FF0A3
:1008C0000003BB714FF00103FB7107F104031846ED
:1008D00002F018FE07F10807BD4680BD80B586B05E
:1008E00000AF4FF004004FF0010102F061F84FF447
:1008F00080204FF0010102F085F84FF40060C4F24F
:1009000002004FF00A014FF0070202F039FC4FF4E9
:100910000060C4F202004FF00B014FF0070202F03A
:100920002FFC4FF00003BB754FF00103FB754FF038
:1009300002033B754FF480633B614FF002037B750C
:1009400007F110034FF40060C4F20200194602F0F0
:1009500075FB4FF002033B754FF400633B6107F1F9
:1009600010034FF40060C4F20200194602F066FB67
:100970004FF4E1333B604FF00003BB804FF00003C6
:10098000FB804FF000033B814FF00003BB814FF031
:100990000C037B813B464FF49040C4F200001946A3
:1009A000FFF76CFC4FF49040C4F2000040F2255178
:1009B0004FF00102FFF7EAFD4FF49040C4F200004F
:1009C0004FF00101FFF730FD07F11807BD4680BD6C
:1009D00080B500AF4FF001004FF007014FF000026B
:1009E00002F0CCFE4FF006004FF00A0102F086FE46
:1009F0004FF49040C4F200004BF6B011C0F6000175
:100A0000FFF778FD40F62813C2F2000393ED0E7B4A
:100A10004FF49040C4F20000B0EE470AF0EE670ACF
:100A2000FFF798FD4FF007004FF00A0102F066FE55
:100A30004FF49040C4F200004BF6C011C0F6000124
:100A4000FFF758FD40F62813C2F2000393ED0C7B2C
:100A50004FF49040C4F20000B0EE470AF0EE670A8F
:100A6000FFF778FD4FF006004FF0280102F046FE38
:100A70004FF49040C4F200004BF6D011C0F60001D4
:100A8000FFF738FD4FF49040C4F200009FEDF00BEB
:100A9000FFF760FD4FF007004FF0280102F02EFE37
:100AA0004FF49040C4F200004BF6E011C0F6000194
:100AB000FFF720FD40F62813C2F2000393ED0A7BF6
:100AC0004FF49040C4F20000B0EE470AF0EE670A1F
:100AD000FFF740FD4FF008004FF00A0102F00EFE54
:100AE0004FF49040C4F200004BF6F011C0F6000144
:100AF000FFF700FD40F68833C2F200031B784FF485
:100B00009040C4F2000019464FF00A02FFF70AFDB8
:100B10004FF008004FF0280102F0F0FD4FF4904034
:100B2000C4F200004BF6FC11C0F60001FFF7E2FC36
:100B300040F62813C2F2000393ED027B4FF490407D
:100B4000C4F20000B0EE470AF0EE670AFFF702FDBC
:100B50004FF009004FF00A0102F0D0FD4FF4904031
:100B6000C4F200004BF60821C0F60001FFF7C2FCFA
:100B700040F6A023C2F200031B784FF49040C4F269
:100B8000000019464FF00A02FFF7CCFC4FF00A00B4
:100B90004FF00A0102F0B2FD4FF49040C4F20000A1
:100BA0004BF61421C0F60001FFF7A4FC40F65823D1
:100BB000C2F200031B78DBB24FF49040C4F2000095
:100BC00019464FF00A02FFF7ADFC4FF00A004FF054
:100BD000280102F093FD4FF49040C4F200004BF660
:100BE0002821C0F60001FFF785FC40F68333C2F2EE
:100BF00000031B78DBB24FF49040C4F200001946AA
:100C00004FF00A02FFF78EFC4FF00B004FF00A0185
:100C100002F074FD4FF49040C4F200004BF638210E
:100C2000C0F60001FFF766FC40F69C33C2F20003F9
:100C30001B784FF49040C4F2000019464FF00A02AE
:100C4000FFF770FC4FF00B004FF0280102F056FD4B
:100C50004FF49040C4F200004BF64C21C0F6000166
:100C6000FFF748FC40F68423C2F200031B78DBB296
:100C70004FF49040C4F2000019464FF00A02FFF70B
:100C800051FC4FF00C004FF00A0102F037FD4FF419
:100C90009040C4F200004BF65C21C0F60001FFF763
:100CA00029FC40F6A223C2F200031B78DBB24FF40A
:100CB0009040C4F2000019464FF00A02FFF732FCE0
:100CC0004FF00C004FF0280102F018FD4FF4904057
:100CD000C4F200004BF66C21C0F60001FFF70AFCDD
:100CE00040F66033C2F200031B784FF49040C4F228
:100CF000000019464FF00A02FFF714FC4FF00D00F8
:100D00004FF00A0102F0FAFC4FF49040C4F20000E8
:100D10004BF68421C0F60001FFF7ECFB40F686336A
:100D2000C2F200031B889BB24FF49040C4F2000053
:100D300019464FF00A02FFF7F5FB4FF00E004FF097
:100D40000A0102F0DBFC4FF49040C4F200004BF6C5
:100D50009821C0F60001FFF7CDFB40F64023C2F218
:100D6000000393ED007B4FF49040C4F20000B0EE1E
:100D7000470AF0EE670AFFF7EDFB4FF015004FF062
:100D80000A0102F0BBFC4FF49040C4F200004BF6A5
:100D9000B021C0F60001FFF7ADFB4FF015004FF09A
:100DA000240102F0ABFC40F65C23C2F200031B7886
:100DB0004FF49040C4F2000019464FF00A02FFF7CA
:100DC000B1FB4FF49040C4F200004FF03A01FFF73E
:100DD00077FB40F65C23C2F200035B784FF490404F
:100DE000C4F2000019464FF00A02FFF79BFB4FF4D4
:100DF0009040C4F200004FF03A01FFF761FB40F66B
:100E00005C23C2F200039B784FF49040C4F20000D0
:100E100019464FF00A02FFF785FB4FF016004FF01E
:100E20000A0102F06BFC4FF49040C4F200004BF654
:100E3000CC21C0F60001FFF75DFB4FF016004FF02C
:100E40000A0102F05BFC40F68823C2F2000303E0D3
:100E500000000000000036401B684FF49040C4F2D0
:100E6000000019464FF00A02FFF75CFB4FF0170035
:100E70004FF00A0102F042FC4FF49040C4F200002F
:100E80004BF6CC21C0F60001FFF734FB4FF0170002
:100E90004FF00A0102F032FC40F68823C2F2000350
:100EA0005B684FF49040C4F2000019464FF00A020C
:100EB000FFF738FB4FF018004FF00A0102F01EFC5C
:100EC0004FF49040C4F200004BF6CC21C0F6000174
:100ED000FFF710FB4FF018004FF00A0102F00EFC74
:100EE00040F68823C2F200039B684FF49040C4F29E
:100EF000000019464FF00A02FFF714FB4FF01900EB
:100F00004FF00A0102F0FAFB4FF49040C4F20000E7
:100F10004BF6CC21C0F60001FFF7ECFA4FF01900B8
:100F20004FF00A0102F0EAFB40F68823C2F2000308
:100F3000DB684FF49040C4F2000019464FF00A02FB
:100F4000FFF7F0FA4FF01A004FF0050102F0D6FB60
:100F50004FF49040C4F200004BF6D821C0F60001D7
:100F6000FFF7C8FA40F64023C2F2000393ED007B7E
:100F70004FF49040C4F20000B0EE470AF0EE670A6A
:100F8000FFF7E8FA4FF01A004FF0280102F0B6FB25
:100F90004FF49040C4F200004BF6EC21C0F6000183
:100FA000FFF7A8FA40F64023C2F2000393ED027B5C
:100FB0004FF49040C4F20000B0EE470AF0EE670A2A
:100FC000FFF7C8FA80BD00BFB0B582B000AF4FF0E8
:100FD0000003FB714FF46053C4F202034FF46052FC
:100FE000C4F20202126B42F008021A634FF00800CA
:100FF0004FF0010101F0DCFC40F66433C2F2000363
:101000004FF6FF421A6040F66433C2F200034FF01D
:1010100001021A7140F66433C2F200034FF000027D
:101020009A7140F66433C2F200034FF003025A7122
:1010300040F66433C2F200034FF00002DA714FF45D
:101040004060C4F2020040F66431C2F2000101F0D7
:10105000F5FFFFF721FCFFF741FC00F0D7FE01F0A0
:1010600099F84FF0010002F01DFB01F089FF4FF0ED
:1010700001004FF001014FF0000202F07FFB4FF042
:1010800001004FF0000102F039FB4FF49040C4F230
:1010900000004BF60031C0F60001FFF72BFA4FF0CD
:1010A00002004FF01E0102F029FB4FF49040C4F201
:1010B00000004BF66831C0F60001FFF71BFA4FF451
:1010C0009040C4F200004BF68431C0F60001FFF7F7
:1010D00011FA4FF000004FF007014FF0000202F04C
:1010E0004DFB01F0B5F840F68433C2F200034FF433
:1010F0007A721A8040F68033C2F200034FF4FA721B
:101100001A8040F6AA13C2F200034FF47A721A80D2
:1011100040F66030C2F2000001F098F940F68333E7
:10112000C2F200034FF000021A7040F62413C2F21C
:1011300000034FF01B021A704FF0000040F65C21D4
:10114000C2F2000102F094FC4FF49040C4F200009F
:1011500040F22661FFF78CFA0346002B06D14FF4CC
:101160004063C4F202034FF480625A8340F65C236A
:10117000C2F200031A7840F65033C2F200031A702C
:1011800040F65C23C2F200039A7840F67433C2F250
:1011900000031A7040F67433C2F200031B78DAB20F
:1011A00040F66133C2F200031B78DBB29A4211D0E1
:1011B00040F68233C2F200034FF001021A7040F68B
:1011C0007433C2F200031B78DAB240F66133C2F224
:1011D00000031A7040F68233C2F200031B78012B21
:1011E0002AD140F65823C2F200031B78DBB2002B51
:1011F0001BD040F65823C2F200031B78DBB203F188
:10120000FF33DAB240F65823C2F200031A7040F6F8
:101210008633C2F200031B889BB203F1FF339AB2FC
:1012200040F68633C2F200031A8040F68233C2F2DF
:1012300000034FF000021A7040F65823C2F2000378
:101240001B78DBB2002B07D04FF44063C4F20203DB
:101250004FF400421A8306E04FF44063C4F20203E5
:101260004FF400425A8340F65033C2F200031A781A
:1012700040F69823C2F200031B789A4206D040F64B
:101280003023C2F200034FF001021A7040F65033CF
:10129000C2F200031B78BB7140F63023C2F2000398
:1012A0001B78002B00F04181BB79A3F107030E2BC3
:1012B00000F23A8101A151F823F000BFF9120008B1
:1012C000231300084D13000877130008A11300082A
:1012D000CB130008F51300081F1400084914000878
:1012E000731400089D140008C7140008291500088D
:1012F00029150008F11400084BF69813C0F60003F6
:101300001A7840F6A023C2F200031A704BF6A41319
:10131000C0F600031A7840F68833C2F200031A7050
:1013200003E14BF69813C0F600035A7840F6A02369
:10133000C2F200031A704BF6A413C0F600035A78E9
:1013400040F68833C2F200031A70EEE04BF69813B1
:10135000C0F600039A7840F6A023C2F200031A7088
:101360004BF6A413C0F600039A7840F68833C2F215
:1013700000031A70D9E04BF69813C0F60003DA7830
:1013800040F6A023C2F200031A704BF6A413C0F675
:101390000003DA7840F68833C2F200031A70C4E022
:1013A0004BF69813C0F600031A7940F6A023C2F258
:1013B00000031A704BF6A413C0F600031A7940F626
:1013C0008833C2F200031A70AFE04BF69813C0F6F0
:1013D00000035A7940F6A023C2F200031A704BF6BC
:1013E000A413C0F600035A7940F68833C2F2000312
:1013F0001A709AE04BF69813C0F600039A7940F6FB
:10140000A023C2F200031A704BF6A413C0F6000327
:101410009A7940F68833C2F200031A7085E04BF6E1
:101420009813C0F60003DA7940F6A023C2F2000355
:101430001A704BF6A413C0F60003DA7940F688332D
:10144000C2F200031A7070E04BF69813C0F6000366
:101450001A7A40F6A023C2F200031A704BF6A413C6
:10146000C0F600031A7A40F68833C2F200031A70FD
:101470005BE04BF69813C0F600035A7A40F6A023BF
:10148000C2F200031A704BF6A413C0F600035A7A96
:1014900040F68833C2F200031A7046E04BF6981308
:1014A000C0F600039A7A40F6A023C2F200031A7035
:1014B0004BF6A413C0F600039A7A40F68833C2F2C2
:1014C00000031A7031E04BF69813C0F60003DA7A85
:1014D00040F6A023C2F200031A704BF6A413C0F624
:1014E0000003DA7A40F68833C2F200031A701CE077
:1014F0004BF69813C0F60003DA7A40F6A023C2F246
:1015000000031A704BF6A413C0F600031A7840F6D5
:101510008833C2F200031A7040F63C23C2F2000383
:101520004FF001021A7000E000BF40F65033C2F2E3
:1015300000031A7840F69823C2F200031B789A42FF
:1015400009D040F65033C2F200031A7840F69823CF
:10155000C2F200031A704FF000004FF007014FF085
:10156000000202F00BF94FF002004FF0010102F00F
:10157000C5F840F68433C2F200031B889BB2002BEF
:1015800040F086804FF0080000F0D2FD40F6B01029
:10159000C2F200004FF0000104F002F9B0EE407A10
:1015A000F0EE607A40F62813C2F2000383ED027B6E
:1015B000CB484FF0000104F0F3F8B0EE407AF0EEC3
:1015C000607A40F62813C2F2000383ED047BC5481D
:1015D0004FF0000104F0E4F8B0EE407AF0EE607AEB
:1015E00040F62813C2F2000383ED067BBE484FF09D
:1015F000000104F0D5F8B0EE407AF0EE607A40F6E3
:101600002813C2F2000383ED087BB8484FF00001B5
:1016100004F0C6F8B0EE407AF0EE607A40F6281397
:10162000C2F2000383ED0A7BB1484FF0000104F0E1
:10163000B7F8B0EE407AF0EE607A40F62813C2F2C6
:10164000000383ED0C7BAB484FF0000104F0A8F8D9
:10165000B0EE407AF0EE607A40F62813C2F2000352
:1016600083ED0E7BA4484FF0000104F099F8B0EE32
:10167000407AF0EE607A40F62813C2F2000383ED60
:10168000107B40F68433C2F200034FF4FA721A80E2
:1016900040F68823C2F200031B684FEA830240F63B
:1016A0008823C2F200031A6040F68823C2F20003C6
:1016B0001A6840F67833C2F200031B889BB2D21836
:1016C00040F68823C2F200031A6040F68823C2F273
:1016D00000031A684CF6CD43CCF6CC43A3FB0213AF
:1016E0004FEA930240F68823C2F200031A6040F6E4
:1016F0008823C2F200035B684FEA830240F6882326
:10170000C2F200035A6040F68823C2F200035A680E
:1017100040F67833C2F200035B889BB2D21840F6E1
:101720008823C2F200035A6040F68823C2F2000305
:101730005A684CF6CD43CCF6CC43A3FB02134FEAD8
:10174000930240F68823C2F200035A6040F68823D1
:10175000C2F200039B684FEA830240F68823C2F27C
:1017600000039A6040F68823C2F200039A6840F6AC
:101770007833C2F200039B889BB2D21840F68823CC
:10178000C2F200039A6040F68823C2F200039A680E
:101790004CF6CD43CCF6CC43A3FB02134FEA9302A5
:1017A00040F68823C2F200039A6040F68823C2F212
:1017B0000003DB684FEA830240F68823C2F200038D
:1017C000DA6040F68823C2F20003DA6840F6783324
:1017D000C2F20003DB889BB2D21840F68823C2F223
:1017E0000003DA6040F68823C2F20003DA684CF6A0
:1017F000CD43CCF6CC43A3FB02134FEA930240F651
:101800008823C2F20003DA6040F62813C2F2000314
:10181000D3E90C23104619464FF000024FF00003A5
:10182000C4F2040302F0BEFA02460B461046194603
:1018300029A3D3E9002302F093FD02460B4610468C
:10184000194640F64023C2F20003C3E9000140F606
:101850004023C2F20003D3E90023104619461EA319
:10186000D3E9002302F052FC02460B46104619460B
:1018700040F64023C2F20003C3E9020140F683337D
:10188000C2F200031B78DBB2002B59D140F62813BB
:10189000C2F20003D3E90E23104619464FF00002AE
:1018A0004FF00003C4F2360302F0C0FE0346002BE3
:1018B00024D140F62813C2F20003D3E90E0140F60A
:1018C0002813C2F20003D3E90A2302F0AFFE034655
:1018D000002B35D012E000BF0000000076FC473F2F
:1018E000C0090020D0090020E0090020F0090020F4
:1018F000000A0020100A0020200A002040F6A2233F
:10190000C2F200034FF001021A7040F68333C2F2B4
:1019100000034FF001021A704FF44063C4F2020357
:101920004FF001021A8340F69C30C2F2000000F032
:10193000D1FD40F65823C2F200034FF014021A7092
:1019400040F6A223C2F200031B78DBB2012B1BD1AD
:1019500040F65823C2F200031B78DBB2002B13D1F0
:1019600040F69C30C2F2000000F0D6FD4FF4406318
:10197000C4F202034FF001025A8340F6A223C2F2DE
:1019800000034FF000021A7040F62813C2F2000361
:10199000D3E90223104619464FF000024FF080436E
:1019A00002F030FE0346002B07D040F68423C2F23B
:1019B00000034FF001021A7006E040F68423C2F2E1
:1019C00000034FF000021A7040F68333C2F20003A6
:1019D0001B78DBB2012B3FD140F62813C2F2000383
:1019E000D3E90E23104619464FF000024FF00003D2
:1019F000C4F23C0302F01AFE0346002B1ED140F64F
:101A00002813C2F20003D3E90E4540F62813C2F2B0
:101A10000003D3E90A23104619464FF000024FF0A5
:101A20000003C4F2180302F0BFF902460B46204639
:101A3000294602F0FBFD0346002B0DD040F6833310
:101A4000C2F200034FF002021A704FF44063C4F276
:101A500002034FF001021A8340F6A223C2F20003F0
:101A60001B78DBB2002B2DD140F68333C2F200038A
:101A70001B78DBB2022B25D140F66033C2F20003A3
:101A80001B78002B1ED140F62813C2F20003D3E9C5
:101A90000E0140F62813C2F20003D3E90A2302F034
:101AA000A7FD0346002B0DD040F68333C2F200039E
:101AB0004FF001021A704FF44063C4F202034FF07A
:101AC00001025A8340F6A223C2F200031B78DBB264
:101AD000002B2FD140F68333C2F200031B78DBB218
:101AE000022B27D140F66033C2F200031B78012B92
:101AF00020D140F62813C2F20003D3E90E2310468A
:101B000019464FF000024FF00003C4F2360302F012
:101B10006FFD0346002B0DD040F68333C2F2000365
:101B20004FF001021A704FF44063C4F202034FF009
:101B300001025A8340F62813C2F20003D3E90A4592
:101B400040F62413C2F200031B78184602F078FA1C
:101B500002460B462046294602F068FD0346002B4C
:101B600006D040F66030C2F2000000F091FC05E0C3
:101B700040F66030C2F2000000F068FC40F68333AB
:101B8000C2F200031B78DBB2002B23D040F62813EF
:101B9000C2F20003D3E90A4540F62413C2F200035F
:101BA0001B78184602F04CFA02460B46204629469E
:101BB00002F03CFD0346002B06D040F66030C2F236
:101BC000000000F065FC05E040F66030C2F2000065
:101BD00000F03CFCFEF7FCFE40F67833C2F2000356
:101BE0001B889BB2B3F5FA6F07D94FF44063C4F278
:101BF00002034FF480521A8306E04FF44063C4F2AC
:101C000002034FF480525A8340F67833C2F2000345
:101C1000DB889BB2B3F5966F07D94FF44063C4F2EB
:101C200002034FF480421A8306E04FF44063C4F28B
:101C300002034FF480425A8340F67833C2F2000325
:101C40009B88BB80FFF778BA80B500AF00F05CF8E6
:101C500040F68433C2F200031B889BB2002B0DD0E8
:101C600040F68433C2F200031B889BB203F1FF33BA
:101C70009AB240F68433C2F200031A8040F68033F1
:101C8000C2F200031B889BB2002B0DD040F68033BC
:101C9000C2F200031B889BB203F1FF339AB240F6F5
:101CA0008033C2F200031A8040F6AA13C2F2000386
:101CB0001B889BB2002B0DD040F6AA13C2F2000382
:101CC0001B889BB203F1FF339AB240F6AA13C2F20B
:101CD00000031A8080BD00BF80B483B000AF78607D
:101CE0007A6840F69C23C2F200031A6000BF40F6F7
:101CF0009C23C2F200031B68002BF8D107F10C07EC
:101D0000BD4680BC704700BF80B400AF40F69C2346
:101D1000C2F200031B68002B0BD040F69C23C2F2DA
:101D200000031B6803F1FF3240F69C23C2F200035C
:101D30001A60BD4680BC704780B582B000AF4FF4DA
:101D40009040C4F2000040F22551FEF791FC03469A
:101D5000002B31D04FF49043C4F200039B889BB218
:101D6000BB71BB790D2B20D040F66813C2F2000383
:101D70001B780F2B19D840F66813C2F200031B78AA
:101D80001A4640F68C33C2F20003B979995440F6F2
:101D90006813C2F200031B7803F10103DAB240F6C4
:101DA0006813C2F200031A7006E040F66813C2F22C
:101DB00000034FF000021A704FF00A037B714FF0DE
:101DC0000003FB7100BF4FF49040C4F200004FF0DD
:101DD0008001FEF72DFC0346002BF4D04FF00003EA
:101DE000FB7103E0FB7903F10103FB71FA797B7965
:101DF0009A42F7D34FF44063C4F202034FF4806277
:101E00005A8307F10807BD4680BD00BF80B500AF0B
:101E10004FF47A70FEF70EFD0346002B00D0FEE76C
:101E20006FF0040001F0F6FB80BD00BF80B485B008
:101E300000AF786039604FF00003FB73FB7B3A68BA
:101E4000D3181B78002B0ED0FB7B3A68D3181B7875
:101E50003E2B08D0FB7B7A68D318FA7B39688A1846
:101E600012781A7005E0FB7B7A68D3184FF02002D5
:101E70001A70FB7B3A68D3181B78002B0CBF002329
:101E80000123DBB2FA7B02F10102FA73002BD5D1F8
:101E900007F11407BD4680BC704700BF80B582B013
:101EA00000AF0346FB71FB79072B00F23B8101A2D7
:101EB00052F823F0D51E00081F1F0008691F0008F4
:101EC000B31F0008FD1F00084720000891200008EC
:101ED000DB2000084FF49040C4F200004BF688313C
:101EE000C0F60001FEF706FB4FF49040C4F200007C
:101EF0004FF00D01FEF7E4FA4FF49040C4F20000F9
:101F00004FF00A01FEF7DCFA40F66C33C2F2000330
:101F1000FA791A704FF03C00FFF7DEFE03E14FF450
:101F20009040C4F200004BF69031C0F60001FEF77D
:101F3000E1FA4FF49040C4F200004FF00D01FEF7BB
:101F4000BFFA4FF49040C4F200004FF00A01FEF7D0
:101F5000B7FA40F66C33C2F20003FA791A704FF008
:101F60003C00FFF7B9FEDEE04FF49040C4F2000001
:101F70004BF69831C0F60001FEF7BCFA4FF49040E2
:101F8000C4F200004FF00D01FEF79AFA4FF49040B2
:101F9000C4F200004FF00A01FEF792FA40F66C33EB
:101FA000C2F20003FA791A704FF03C00FFF794FE7A
:101FB000B9E04FF49040C4F200004BF6A031C0F6F7
:101FC0000001FEF797FA4FF49040C4F200004FF082
:101FD0000D01FEF775FA4FF49040C4F200004FF087
:101FE0000A01FEF76DFA40F66C33C2F20003FA798B
:101FF0001A704FF03C00FFF76FFE94E04FF49040F2
:10200000C4F200004BF6A831C0F60001FEF772FAE8
:102010004FF49040C4F200004FF00D01FEF750FA6B
:102020004FF49040C4F200004FF00A01FEF748FA66
:1020300040F66C33C2F20003FA791A704FF03C009C
:10204000FFF74AFE6FE04FF49040C4F200004BF6F9
:10205000B031C0F60001FEF74DFA4FF49040C4F2E3
:1020600000004FF00D01FEF72BFA4FF49040C4F240
:1020700000004FF00A01FEF723FA40F66C33C2F27B
:102080000003FA791A704FF03C00FFF725FE4AE092
:102090004FF49040C4F200004BF6B831C0F6000196
:1020A000FEF728FA4FF49040C4F200004FF00D0103
:1020B000FEF706FA4FF49040C4F200004FF00A0118
:1020C000FEF7FEF940F66C33C2F20003FA791A709B
:1020D0004FF03C00FFF700FE25E04FF49040C4F2C3
:1020E00000004BF6C031C0F60001FEF703FA4FF4D2
:1020F0009040C4F200004FF00D01FEF7E1F94FF4FB
:102100009040C4F200004FF00A01FEF7D9F940F602
:102110006C33C2F20003FA791A704FF03C00FFF7FB
:10212000DBFD00E000BF07F10807BD4680BD00BF32
:1021300080B584B000AF0346FB714FF00003FB7322
:102140004FF00003FB731AE0FB7B1846FFF7A6FE77
:1021500040F66C33C2F200031B784FEA031240F6DC
:10216000B013C2F20003D318184640F68C31C2F205
:102170000001FFF75BFEFB7B03F10103FB73FA7BBE
:10218000FB7903F101039A42DEDB07F11007BD463C
:1021900080BD00BF80B584B000AF4FF0010000F0FB
:1021A000A7FA00BF4FF0410000F0AAFC0346002B45
:1021B000F8D04FF4807000F0B1FB4FF0010000F058
:1021C000E7FB4FF080504FF0010100F01BFC4FF097
:1021D0000100FEF7AFFA4FF0010000F071FA00BF06
:1021E0004FF0310000F08CFC0346002BF8D001F0DA
:1021F000E7FB4FF07F03BB604FF48073FB604FF051
:1022000000037B6007F10403184601F01DFB40F654
:102210003423C2F200034FF04002DA7040F6342358
:10222000C2F200034FF011021A7040F63423C2F2DA
:1022300000034FF036025A7040F63423C2F2000316
:102240004FF001029A7007F11007BD4680BD00BF34
:1022500080B59CB000AF00F09BFC4FF001004FF048
:10226000010100F0A5FB4FF004004FF0010100F068
:102270009FFB4FF480004FF0010100F099FB4FF4F9
:1022800080704FF0010100F0E7FB4FF00003FB60AE
:1022900042F24C03C4F201033B6140F67833C2F2D0
:1022A00000037B614FF00003BB614FF00403FB614F
:1022B0004FF000033B624FF480637B624FF4006396
:1022C000BB624FF40053FB624FF480733B634FF4E7
:1022D00000337B634FF00003BB634FF00103FB63EC
:1022E0004FF000033B644FF000037B6407F10C03E5
:1022F00046F21040C4F20200194600F0C3FF46F255
:102300001040C4F202004FF0010101F013F84FF049
:102310000F037B604FF003033B724FF00003FB722F
:1023200007F104034FF00000C4F20200194600F068
:1023300085FE4FF00003BB644FF48033FB644FF025
:1023400000033B654FF470637B6507F14803184653
:1023500000F08AFC4FF00003BB654FF0010387F8E3
:102360005C304FF0010387F85D304FF000033B66AF
:102370004FF000037B664FF00003BB664FF0040391
:1023800087F86C3007F158034FF40050C4F2010095
:10239000194600F00DFC4FF40050C4F201004FF05C
:1023A00000014FF001024FF0020300F0A7FC4FF4D0
:1023B0000050C4F201004FF001014FF002024FF053
:1023C000020300F09BFC4FF40050C4F201004FF0F8
:1023D00002014FF003024FF0020300F08FFC4FF4B4
:1023E0000050C4F201004FF003014FF004024FF01F
:1023F000020300F083FC4FF40050C4F201004FF0E0
:10240000010100F069FD4FF40050C4F201004FF0EB
:10241000010100F099FD4FF40050C4F201004FF0AB
:10242000010100F075FD4FF40050C4F201004FF0BF
:10243000010100F047FC4FF40050C4F2010000F02D
:102440003BFD07F17007BD4680BD00BF80B582B07F
:1024500000AF78607B681B78002B15D04FF4406389
:10246000C4F202034FF040021A834FF0C800FFF796
:1024700033FC4FF44063C4F202034FF040025A832E
:102480007B684FF000021A7007F10807BD4680BD57
:1024900080B582B000AF78607B681B78012B15D0C7
:1024A0004FF44063C4F202034FF080021A834FF0EE
:1024B000C800FFF711FC4FF44063C4F202034FF071
:1024C00080025A837B684FF001021A7007F10807F7
:1024D000BD4680BD80B582B000AF78607B681B7858
:1024E000002B15D14FF44063C4F202034FF00202F7
:1024F0001A834FF0C800FFF7EFFB4FF44063C4F2BC
:1025000002034FF002025A837B684FF001021A70F7
:1025100007F10807BD4680BD80B582B000AF786086
:102520007B681B78012B40F0C6804FF44063C4F2F7
:1025300002034FF002021A834FF0C800FFF7CCFBF2
:102540004FF44063C4F202034FF002025A834FF08B
:10255000C800FFF7C1FB4FF44063C4F202034FF021
:1025600002021A834FF0C800FFF7B6FB4FF4406336
:10257000C4F202034FF002025A834FF0C800FFF783
:10258000ABFB4FF44063C4F202034FF002021A8324
:102590004FF0C800FFF7A0FB4FF44063C4F2020302
:1025A0004FF002025A834FF0C800FFF795FB4FF43B
:1025B0004063C4F202034FF002021A834FF0C800D6
:1025C000FFF78AFB4FF44063C4F202034FF00202AC
:1025D0005A834FF0C800FFF77FFB4FF44063C4F20B
:1025E00002034FF002021A834FF0C800FFF774FB9A
:1025F0004FF44063C4F202034FF002025A834FF0DB
:10260000C800FFF769FB4FF44063C4F202034FF0C8
:1026100002021A834FF0C800FFF75EFB4FF44063DD
:10262000C4F202034FF002025A834FF0C800FFF7D2
:1026300053FB4FF44063C4F202034FF002021A83CB
:102640004FF0C800FFF748FB4FF44063C4F20203A9
:102650004FF002025A834FF0C800FFF73DFB4FF4E2
:102660004063C4F202034FF002021A834FF0C80025
:10267000FFF732FB4FF44063C4F202034FF0020253
:102680005A834FF0C800FFF727FB4FF44063C4F2B2
:1026900002034FF002021A834FF0C800FFF71CFB41
:1026A0004FF44063C4F202034FF002025A837B6886
:1026B0004FF000021A7007F10807BD4680BD00BF49
:1026C00080B483B000AF0346FB7143F60203C4F24B
:1026D00002034FF000021A7043F60203C4F2020331
:1026E000FA791A7007F10C07BD4680BC704700BF2D
:1026F00080B483B000AF0346FB7143F67003C4F2AD
:1027000002034FF000021A7043F67003C4F2020392
:102710004FF000021A70FB79012B02D0042B08D075
:102720000FE043F67003C4F202034FF001021A7087
:1027300008E043F67003C4F202034FF005021A707A
:1027400000E000BF07F10C07BD4680BC704700BF2A
:1027500080B489B000AF78604FF00003BB614FF0E8
:1027600000037B614FF00003FB614FF002033B610C
:102770004FF00003FB604FF00203BB604FF4605367
:10278000C4F202039B6803F00C03BB61BB69042B1A
:102790000AD0082B0FD0002B60D17A684FF4105369
:1027A000C0F2F403136060E07A684FF49053C0F213
:1027B0007A03136059E04FF46053C4F202035B687C
:1027C00003F480034FEA9353FB604FF46053C4F269
:1027D00002035B6803F03F03BB60FB68002B14D06F
:1027E0004FF49053C0F27A03BA68B3FBF2F24FF49D
:1027F0006053C4F20203596847F6C0730B404FEAB6
:10280000931303FB02F3FB6113E04FF41053C0F288
:10281000F403BA68B3FBF2F24FF46053C4F202035C
:10282000596847F6C0730B404FEA931303FB02F35A
:10283000FB614FF46053C4F202035B6803F440335E
:102840004FEA134303F101034FEA43033B61FA6983
:102850003B69B2FBF3F27B681A6006E07A684FF4DA
:102860001053C0F2F403136000BF4FF46053C4F27E
:1028700002039B6803F0F003BB61BB694FEA1313CB
:10288000BB6140F20003C2F20003BA699B181B78D7
:10289000DBB27B617B681A687B6922FA03F27B6892
:1028A0005A604FF46053C4F202039B6803F4E05390
:1028B000BB61BB694FEA9323BB6140F20003C2F2E4
:1028C0000003BA699B181B78DBB27B617B685A688E
:1028D0007B6922FA03F27B689A604FF46053C4F27A
:1028E00002039B6803F46043BB61BB694FEA533347
:1028F000BB6140F20003C2F20003BA699B181B7867
:10290000DBB27B617B685A687B6922FA03F27B68E1
:10291000DA6007F12407BD4680BC704780B485B0FB
:1029200000AF78604FF00003FB607B6803F44073F6
:10293000B3F5407F17D14FF46053C4F202039B6894
:10294000FB60FB6823F4F813FB607B6823F07043A3
:1029500023F44073FA681343FB604FF46053C4F2EE
:102960000203FA689A604FF46053C4F202034FF412
:102970006052C4F20202116F7A684FEA02524FEAC3
:1029800012520A431A6707F11407BD4680BC70470C
:1029900080B483B000AF0346FB7140F63C63C4F2E1
:1029A0004723FA791A6007F10C07BD4680BC7047CF
:1029B00080B483B000AF78600B46FB70FB78002BCF
:1029C0000CD04FF46053C4F202034FF46052C4F2CF
:1029D0000202116B7A680A431A630DE04FF46053E8
:1029E000C4F202034FF46052C4F20202116B7A681F
:1029F0006FEA02020A401A6307F10C07BD4680BC69
:102A0000704700BF80B483B000AF78600B46FB70A6
:102A1000FB78002B0CD04FF46053C4F202034FF448
:102A20006052C4F20202116C7A680A431A640DE023
:102A30004FF46053C4F202034FF46052C4F2020236
:102A4000116C7A686FEA02020A401A6407F10C07F7
:102A5000BD4680BC704700BF80B483B000AF7860D3
:102A60000B46FB70FB78002B0CD04FF46053C4F284
:102A700002034FF46052C4F20202516C7A680A43B6
:102A80005A640DE04FF46053C4F202034FF46052F5
:102A9000C4F20202516C7A686FEA02020A405A6478
:102AA00007F10C07BD4680BC704700BF80B483B0FF
:102AB00000AF78600B46FB70FB78002B0CD04FF416
:102AC0006053C4F202034FF46052C4F20202516A2E
:102AD0007A680A435A620DE04FF46053C4F202036D
:102AE0004FF46052C4F20202516A7A686FEA02023D
:102AF0000A405A6207F10C07BD4680BC704700BF10
:102B000080B487B000AF0346FB714FF00003FB6059
:102B10004FF000037B614FF00003FB74FB794FEA39
:102B20005313DBB2FB60FB68012B06D14FF46053FB
:102B3000C4F202031B687B610FE0FB68022B06D125
:102B40004FF46053C4F202031B6F7B6105E04FF446
:102B50006053C4F202035B6F7B61FB7903F01F03D8
:102B6000FB60FB687A6922FA03F303F00103002B90
:102B700003D04FF00103FB7402E04FF00003FB743D
:102B8000FB7C184607F11C07BD4680BC704700BFA0
:102B900080B500AF4FF480704FF00101FFF786FF62
:102BA0004FF480704FF00001FFF780FF80BD00BF41
:102BB00080B485B000AF786039604FF00003FB60EF
:102BC0004FF00003FB727B685B68FB60FB6823F0DF
:102BD000407323F48073FB603B681B794FEA032248
:102BE0003B681B681343FA681343FB607B68FA6811
:102BF0005A607B689B68FB60FA684FF2FD73CCF209
:102C0000FF031340FB603B681A693B68DB681A43AB
:102C10003B689B681A433B685B794FEA4303134365
:102C2000FA681343FB607B68FA689A607B68DB6A2A
:102C3000FB60FB6823F47003FB603B681B7D03F1C2
:102C4000FF33DAB2FB7A1343FB72FB7A4FEA03538A
:102C5000FA681343FB607B68FA68DA6207F11407CD
:102C6000BD4680BC704700BF80B485B000AF7860BF
:102C70004FF00003FB604FF40C53C4F201035B6898
:102C8000FB60FA6843F2E003CFF6FC731340FB608D
:102C90007B681A687B685B681A437B689B681A4389
:102CA0007B68DB681343FA681343FB604FF40C53F3
:102CB000C4F20103FA685A6007F11407BD4680BCEC
:102CC000704700BF80B483B000AF78600B46FB70E4
:102CD000FB78002B06D07B689B6843F001027B6881
:102CE0009A6005E07B689B6823F001027B689A602C
:102CF00007F10C07BD4680BC704700BF80B485B0AB
:102D000000AF7860F970BA707B704FF00003FB6021
:102D10004FF00003BB60FB78092B27D97B68DB6889
:102D2000FB60FA7813464FEA43039B18A3F11E0396
:102D30004FF0070202FA03F3BB60BB686FEA0303BC
:102D4000FA681340FB607978FA7813464FEA430338
:102D50009B18A3F11E0301FA03F3BB60FA68BB687A
:102D60001343FB607B68FA68DA6022E07B681B69CA
:102D7000FB60FA7813464FEA43039B184FF00702B3
:102D800002FA03F3BB60BB686FEA0303FA681340FF
:102D9000FB607978FA7813464FEA43039B1801FAEF
:102DA00003F3BB60FA68BB681343FB607B68FA6897
:102DB0001A61BB78062B27D87B685B6BFB60BB78FE
:102DC00003F1FF3213464FEA83039B184FF01F02B3
:102DD00002FA03F3BB60BB686FEA0303FA681340AF
:102DE000FB60F978BB7803F1FF3213464FEA8303A7
:102DF0009B1801FA03F3BB60FA68BB681343FB60DE
:102E00007B68FA685A6351E0BB780C2B27D87B6843
:102E10001B6BFB60BA7813464FEA83039B18A3F140
:102E200023034FF01F0202FA03F3BB60BB686FEA93
:102E30000303FA681340FB60F978BA7813464FEA47
:102E400083039B18A3F1230301FA03F3BB60FA6821
:102E5000BB681343FB607B68FA681A6326E07B68F3
:102E6000DB6AFB60BA7813464FEA83039B18A3F131
:102E700041034FF01F0202FA03F3BB60BB686FEA25
:102E80000303FA681340FB60F978BA7813464FEAF7
:102E900083039B18A3F1410301FA03F3BB60FA68B3
:102EA000BB681343FB607B68FA68DA6207F11407BA
:102EB000BD4680BC704700BF80B483B000AF78606F
:102EC0007B689B6843F080427B689A6007F10C073F
:102ED000BD4680BC704700BF80B483B000AF78604F
:102EE0000B46FB70FB78002B06D07B689B6843F495
:102EF00080627B689A6005E07B689B6823F480624F
:102F00007B689A6007F10C07BD4680BC704700BF24
:102F100080B483B000AF78600B46FB70FB78002B69
:102F200006D07B689B6843F480727B689A6005E0FA
:102F30007B689B6823F480727B689A6007F10C07BA
:102F4000BD4680BC704700BF80B483B000AF7860DE
:102F50000B46FB70FB78002B06D07B689B6843F424
:102F600000727B689A6005E07B689B6823F40072BE
:102F70007B689A6007F10C07BD4680BC704700BFB4
:102F800080B584B000AF4FF010004FF00101FFF7A3
:102F900039FD07F10403184600F058FE4FF0FF0317
:102FA000BB604FF00003BB804FF00003BB814FF0CC
:102FB0000003FB8007F104034FF48050C4F20000CB
:102FC000194600F0C9FD4FF48050C4F200004FF0E4
:102FD000200100F0C7FE4FF48050C4F200004FF013
:102FE000010100F051FE07F11007BD4680BD00BF92
:102FF00080B500AF4FF0010000F034FA0346002B1B
:103000001BD040F21103C2F200034FF001021A700C
:1030100040F21003C2F200031B78DBB2002B14BF96
:1030200000230123DBB21A4640F21003C2F2000370
:103030001A704FF0010000F041FA80BD80B487B0F3
:1030400000AF786039604FF000037B614FF0000300
:103050003B614FF00003FB604FF000037B6186E0B3
:103060007B694FF0010202FA03F33B613B681A6887
:103070003B691340FB60FA683B699A4273D17B68F5
:103080001A687B694FEA43034FF0030101FA03F327
:103090006FEA03031A407B681A607B681A683B6812
:1030A0001B7919467B694FEA430301FA03F31A437C
:1030B0007B681A603B681B79012B03D03B681B7946
:1030C000022B34D17B689A687B694FEA43034FF047
:1030D000030101FA03F36FEA03031A407B689A6065
:1030E0007B689A683B685B7919467B694FEA4303C2
:1030F00001FA03F31A437B689A607B685A687B691C
:103100009BB24FF0010101FA03F36FEA03031A4087
:103110007B685A607B685A683B689B7919467B6973
:103120009BB201FA03F39BB21A437B685A607B6837
:10313000DA687B699BB24FEA43034FF0030101FA5F
:1031400003F36FEA03031A407B68DA607B68DA688E
:103150003B68DB7919467B694FEA430301FA03F3C5
:103160001A437B68DA607B6903F101037B617B6949
:103170000F2B7FF675AF07F11C07BD4680BC70476B
:1031800080B485B000AF786013460A467A807B70C1
:103190004FF00003FB604FF00003BB607A787B8840
:1031A00003F007034FEA830302FA03F3FB607B8813
:1031B0004FEAD3039BB21A467B884FEAD3039BB2F4
:1031C00019467B6801F1080153F821107B8803F050
:1031D00007034FEA83034FF00F0000FA03F36FEA8F
:1031E000030319407B6802F1080243F822107B8830
:1031F0004FEAD3039BB21A467B6802F1080253F8E8
:103200002220FB681343BB607B884FEAD3039BB249
:103210001A467B6802F10802B96843F8221007F1E8
:103220001407BD4680BC704780B485B000AF78609D
:1032300040F67013C2F200031B68002B08D140F661
:103240007013C2F2000340F6A442C2F200021A60F8
:1032500040F67013C2F200031B68FB6040F6701367
:10326000C2F200031A687B68D21840F67013C2F2EB
:1032700000031A60FB68184607F11407BD4680BCBE
:10328000704700BF80B485B000AF786039604FF000
:103290000003FB607B681B68FB60FA6848F23F0331
:1032A000CFF21C031340FB603B681A683B68DB6885
:1032B0001A433B685B691A433B689B691A433B6846
:1032C000DB691A433B681B6A1A433B685B6A1A4313
:1032D0003B689B6A1A433B685B6B1A433B689B6B7A
:1032E0001343FA681343FB607B68FA681A607B68D3
:1032F0005B69FB60FB6823F00703FB603B68DA6AED
:103300003B681B6B1343FA681343FB607B68FA68E6
:103310005A613B681A697B685A603B685A687B68E7
:103320009A603B689A687B68DA6007F11407BD46CB
:1033300080BC704780B483B000AF78600B46FB70F0
:10334000FB78002B06D07B681B6843F001027B688A
:103350001A6005E07B681B6823F001027B681A6035
:1033600007F10C07BD4680BC704700BF80B588B030
:1033700000AFF860B9607A60BB68BB614FF00003D2
:10338000FB617B68012B40DD7B68102B3DDC7B689B
:103390000A2B08D1FB68FB61FB69002B03DAFB6891
:1033A000C3F10003FB60FA687B6892FBF3F37B6177
:1033B000FB687A6893FBF2F2796801FB02F29B1AD0
:1033C0003B614BF6C833C0F600033A699B181A7884
:1033D000BB681A70BB6803F10103BB607B69FB60CB
:1033E000FB68002BDFD1FB69002B07DABB684FF0CD
:1033F0002D021A70BB6803F10103BB60BB6803F1C7
:10340000FF33B869194600F00BF8BB684FF00002B3
:103410001A70BB69184607F12007BD4680BD00BF82
:1034200080B485B000AF7860396011E03B681B78EC
:10343000FB737B681A783B681A703B6803F1FF33B3
:103440003B607B68FA7B1A707B6803F101037B6049
:103450003A687B689A42E9D807F11407BD4680BCF8
:10346000704700BF80B485B000AF78604FF00003B4
:10347000FB734FF00003BB604FF47053C4F20103C1
:103480001A687B681340BB604FF47053C4F20103A9
:103490005A697B681340002B06D0BB68002B03D011
:1034A0004FF00103FB7302E04FF00003FB73FB7B63
:1034B000184607F11407BD4680BC704780B483B03E
:1034C00000AF78604FF47053C4F201037A685A6118
:1034D00007F10C07BD4680BC704700BF80B483B0C5
:1034E00000AF78604FF46D43CEF200037A6842F08B
:1034F000BF6242F40032DA6007F10C07BD4680BCBF
:10350000704700BF80B485B000AF78604FF0000313
:10351000FB734FF00003BB734FF00F037B737B68AB
:10352000DB78002B45D04FF46D43CEF20003DB680F
:103530006FEA030303F4E0634FEA1323FB73FB7B9F
:10354000C3F10403BB737A7BFB7B42FA03F37B7307
:103550007B685B781A46BB7B02FA03F3FB737B68DC
:103560009A787B7B1340DAB2FB7B1343FB73FB7BC4
:103570004FEA0313FB734FF46143CEF200037A6802
:1035800012789B18FA7B83F800234FF46143CEF244
:1035900000037A6812784FEA5212D2B27968097839
:1035A00001F01F014FF0010000FA01F143F8221071
:1035B00014E04FF46143CEF200037A6812784FEAC8
:1035C0005212D2B27968097801F01F014FF0010060
:1035D00000FA01F102F1200243F8221007F114076A
:1035E000BD4680BC704700BF80B483B000AF786038
:1035F00039604FF46D43CEF200033A6822F0604226
:1036000022F07F0279680A439A6007F10C07BD46F1
:1036100080BC704780B483B000AF78607B68042BB7
:103620000CD14EF21003CEF200034EF21002CEF295
:103630000002126842F004021A600BE04EF210031E
:10364000CEF200034EF21002CEF20002126822F017
:1036500004021A6007F10C07BD4680BC704700BF2A
:1036600080B582B000AF0346FB71FB79002B0AD016
:103670004FF49040C4F2000040F22401C2F2000175
:10368000FCF738FF09E04FF49040C4F2000040F22C
:103690002C01C2F20001FCF72DFF07F10807BD461F
:1036A00080BD00BF80B582B000AF0346FB714FF410
:1036B0009040C4F2000040F23401C2F20001FCF775
:1036C00019FFFB791846FFF7CBFF4FF49040C4F287
:1036D000000040F21401C2F20001FCF70BFF4FF4AE
:1036E0009040C4F2000040F21C01C2F20001FCF75D
:1036F00001FF07F10807BD4680BD00BF80B582B05D
:1037000000AF02460B46FA71BB714FF49040C4F211
:1037100000004FF01B01FCF7D3FE4FF49040C4F2C1
:1037200000004FF05B01FCF7CBFEFB794FF49040BB
:10373000C4F2000019464FF00A02FCF7F3FE4FF402
:103740009040C4F200004FF03B01FCF7B9FEBB799A
:103750004FF49040C4F2000019464FF00A02FCF703
:10376000E1FE4FF49040C4F200004FF04801FCF736
:10377000A7FE07F10807BD4680BD00BF80B582B037
:1037800000AF13460246FA710A46BA717B714FF4D4
:103790009040C4F200004FF01B01FCF791FE4FF483
:1037A0009040C4F200004FF05B01FCF789FEFB790A
:1037B00003F13003DBB24FF49040C4F2000019462D
:1037C000FCF77EFE4FF49040C4F200004FF03B0146
:1037D000FCF776FE4FF49040C4F200004FF0330146
:1037E000FCF76EFEBB7903F13003DBB24FF490407F
:1037F000C4F200001946FCF763FE4FF49040C4F297
:1038000000004FF03B01FCF75BFE4FF49040C4F228
:1038100000004FF03401FCF753FE7B7903F13003D5
:10382000DBB24FF49040C4F200001946FCF748FEAA
:103830004FF49040C4F200004FF06D01FCF740FEE1
:1038400007F10807BD4680BD80B584B000AF786041
:103850004FF00003FB734FF42053C4F200034FF00A
:10386000CA025A624FF42053C4F200034FF05302CD
:103870005A6200F049F80346002B03D14FF00003D1
:10388000FB7333E04FF42053C4F200034FF4205293
:10389000C4F20002926822F040029A604FF4205372
:1038A000C4F200034FF42052C4F2000291687A6817
:1038B00012680A439A604FF42053C4F200037A68F6
:1038C00092681A614FF42053C4F200034FF420525F
:1038D000C4F2000211697A6852684FEA02420A4350
:1038E0001A6100F05BF84FF00103FB734FF42053B3
:1038F000C4F200034FF0FF025A62FB7B184607F147
:103900001007BD4680BD00BF80B485B000AF4FF04A
:1039100000037B604FF00003FB734FF00003BB60BC
:103920004FF42053C4F20003DB6803F04003002B84
:103930002AD14FF42053C4F200034FF0FF32DA6073
:103940004FF42053C4F20003DB6803F04003BB6074
:103950007B6803F101037B607B68B3F5803F02D095
:10396000BB68002BECD04FF42053C4F20003DB689B
:1039700003F04003002B03D04FF00103FB7306E07C
:103980004FF00003FB7302E04FF00103FB73FB7B7E
:10399000184607F11407BD4680BC704780B400AFDD
:1039A0004FF42053C4F200034FF42052C4F200023B
:1039B000D26822F08002DA60BD4680BC704700BF4A
:1039C00080B485B000AF4FF000037B604FF0000380
:1039D000FB734FF00003BB604FF42053C4F20003AD
:1039E0004FF0CA025A624FF42053C4F200034FF062
:1039F00053025A624FF42053C4F200034FF4205292
:103A0000C4F20002D26822F0A002DA604FF4205320
:103A1000C4F20003DB6803F02003BB607B6803F1A2
:103A200001037B607B68B3F5003F02D0BB68002BCD
:103A3000ECD04FF42053C4F20003DB6803F0200302
:103A4000002B03D04FF00103FB7302E04FF00003A3
:103A5000FB734FF42053C4F200034FF0FF025A628D
:103A6000FB7B184607F11407BD4680BC704700BFBA
:103A700080B584B000AF786039604FF00003FB6020
:103A80004FF42053C4F200031B6803F07F3323F08C
:103A9000FE43FB60FB6803F47C134FEA1343DAB286
:103AA0003B681A70FB6803F4FE434FEA1323DAB253
:103AB0003B685A70FB68DBB203F07F03DAB23B6805
:103AC0009A70FB6803F480034FEA1343DAB23B6851
:103AD000DA707B68002B1AD13B681B78184600F01F
:103AE0001BF803461A463B681A703B685B78184619
:103AF00000F012F803461A463B685A703B689B7800
:103B0000184600F009F803461A463B689A7007F118
:103B10001007BD4680BD00BF80B485B000AF03462E
:103B2000FB714FF00003FB73FB794FEA1313DBB219
:103B30001A464FEA8202D3184FEA4303FB73FB791C
:103B400003F00F03DAB2FB7BD318DBB2184607F1A0
:103B50001407BD4680BC704780B485B000AF786064
:103B600039604FF00003FB817B681B88FB817A681A
:103B70004FF00003C4F201039A421FD07A684FF459
:103B80008063C4F201039A4218D07B68B3F1804F7E
:103B900014D07A684FF48063C4F200039A420DD0C7
:103BA0007A684FF40063C4F200039A4206D07A6840
:103BB0004FF44063C4F200039A4208D1FB8923F01A
:103BC0007003FB813B685A88FB891343FB817A6849
:103BD0004FF48053C4F200039A420FD07A684FF436
:103BE000A053C4F200039A4208D0FB8923F4407327
:103BF000FB813B681A89FB891343FB817B68FA8947
:103C00001A803B685A687B68DA623B681A887B686E
:103C10001A857A684FF00003C4F201039A4206D075
:103C20007A684FF48063C4F201039A4204D13B687E
:103C30009B7A1A467B681A867B684FF001029A824B
:103C400007F11407BD4680BC704700BF80B483B045
:103C500000AF78607B684FF0FF325A607B684FF0AE
:103C600000021A807B684FF000021A817B684FF0D7
:103C700000025A807B684FF000029A7207F10C072D
:103C8000BD4680BC704700BF80B483B000AF786091
:103C90000B46FB70FB78002B08D07B681B889BB21F
:103CA00043F001039AB27B681A8007E07B681B88A7
:103CB0009BB223F001039AB27B681A8007F10C07CC
:103CC000BD4680BC704700BF80B483B000AF786051
:103CD0007B681B6C184607F10C07BD4680BC70471B
:103CE00080B485B000AF78600B467B804FF0000356
:103CF000FB734FF00003BB814FF000037B817B68B7
:103D00001B8A9AB27B881340BB817B689B899AB2DD
:103D10007B8813407B81BB89002B06D07B89002BDD
:103D200003D04FF00103FB7302E04FF00003FB737D
:103D3000FB7B184607F11407BD4680BC704700BFE7
:103D400080B483B000AF78600B467B807B886FEADD
:103D500003039AB27B681A8207F10C07BD4680BC48
:103D6000704700BF80B483B000AF78600B467B80A3
:103D70007B689B889BB223F070039AB27B689A8021
:103D80007B689B889AB27B8813439AB27B689A803F
:103D900007F10C07BD4680BC704700BF81F00041B1
:103DA00002E000BF83F0004330B54FEA41044FEA20
:103DB000430594EA050F08BF90EA020F1FBF54EABB
:103DC000000C55EA020C7FEA645C7FEA655C00F057
:103DD000E2804FEA5454D4EB5555B8BF6D420CDD28
:103DE0002C4480EA020281EA030382EA000083EAAB
:103DF000010180EA020281EA0303362D88BF30BD4B
:103E000011F0004F4FEA01314FF4801C4CEA1131A0
:103E100002D0404261EB410113F0004F4FEA0333FF
:103E20004CEA133302D0524263EB430394EA050F8A
:103E300000F0A780A4F10104D5F1200E0DDB02FAF9
:103E40000EFC22FA05F2801841F1000103FA0EF28D
:103E5000801843FA05F359410EE0A5F120050EF153
:103E6000200E012A03FA0EFC28BF4CF0020C43FA84
:103E700005F3C01851EBE37101F0004507D54FF091
:103E8000000EDCF1000C7EEB00006EEB0101B1F5E1
:103E9000801F1BD3B1F5001F0CD349085FEA300027
:103EA0004FEA3C0C04F101044FEA445212F5800F32
:103EB00080F09A80BCF1004F08BF5FEA500C50F1CF
:103EC000000041EB045141EA050130BD5FEA4C0CB2
:103ED000404141EB010111F4801FA4F10104E9D13B
:103EE00091F0000F04BF01460020B1FA81F308BF32
:103EF0002033A3F10B03B3F120020CDA0C3208DDFE
:103F000002F1140CC2F10C0201FA0CF021FA02F1D8
:103F10000CE002F11402D8BFC2F1200C01FA02F148
:103F200020FA0CFCDCBF41EA0C019040E41AA2BF6D
:103F300001EB0451294330BD6FEA04041F3C1CDA35
:103F40000C340EDC04F11404C4F1200220FA04F055
:103F500001FA02F340EA030021FA04F345EA0301FF
:103F600030BDC4F10C04C4F1200220FA02F001FAC1
:103F700004F340EA0300294630BD21FA04F0294643
:103F800030BD94F0000F83F4801306BF81F48011DC
:103F90000134013D4EE77FEA645C18BF7FEA655C4F
:103FA00029D094EA050F08BF90EA020F05D054EA21
:103FB000000C04BF1946104630BD91EA030F1EBF26
:103FC0000021002030BD5FEA545C05D1400049412A
:103FD00028BF41F0004130BD14F580043CBF01F51D
:103FE000801130BD01F0004545F0FE4141F4700103
:103FF0004FF0000030BD7FEA645C1ABF19461046DE
:104000007FEA655C1CBF0B46024650EA013406BFDE
:1040100052EA033591EA030F41F4002130BD00BF9D
:1040200090F0000F04BF0021704730B54FF480645A
:1040300004F132044FF000054FF0000150E700BFDB
:1040400090F0000F04BF0021704730B54FF480643A
:1040500004F1320410F0004548BF40424FF0000127
:104060003EE700BF42004FEAE2014FEA31014FEA6A
:1040700002701FBF12F07F4393F07F4F81F06051B9
:10408000704792F0000F14BF93F07F4F704730B528
:104090004FF4607401F0004521F0004120E700BFBB
:1040A00050EA010208BF704730B54FF000050AE042
:1040B00050EA010208BF704730B511F0004502D543
:1040C000404261EB41014FF4806404F132045FEA45
:1040D000915C3FF4DCAE4FF003025FEADC0C18BFEA
:1040E00003325FEADC0C18BF033202EBDC02C2F1E0
:1040F000200300FA03FC20FA02F001FA03FE40EA72
:104100000E0021FA02F11444C1E600BF70B54FF071
:10411000FF0C4CF4E06C1CEA11541DBF1CEA135553
:1041200094EA0C0F95EA0C0F00F0DEF82C4481EABB
:10413000030621EA4C5123EA4C5350EA013518BFDB
:1041400052EA033541F4801143F4801338D0A0FBC8
:1041500002CE4FF00005E1FB02E506F00042E0FB75
:1041600003E54FF00006E1FB03569CF0000F18BF7B
:104170004EF0010EA4F1FF04B6F5007F64F5407423
:1041800004D25FEA4E0E6D4146EB060642EAC621B6
:1041900041EA55514FEAC52040EA5E504FEACE2E23
:1041A000B4F1FD0C88BFBCF5E06F1ED8BEF1004F26
:1041B00008BF5FEA500E50F1000041EB045170BDA2
:1041C00006F0004646EA010140EA020081EA0301E6
:1041D000B4EB5C04C2BFD4EB0C0541EA045170BDE2
:1041E00041F480114FF0000E013C00F3AB8014F15C
:1041F000360FDEBF002001F0004170BDC4F10004A5
:10420000203C35DA0C341BDC04F11404C4F1200525
:1042100000FA05F320FA04F001FA05F240EA020080
:1042200001F0004221F0004110EBD37021FA04F6B6
:1042300042EB06015EEA430E08BF20EAD37070BD70
:10424000C4F10C04C4F1200500FA04F320FA05F0CF
:1042500001FA04F240EA020001F0004110EBD370D1
:1042600041F100015EEA430E08BF20EAD37070BD41
:10427000C4F1200500FA05F24EEA020E20FA04F31A
:1042800001FA05F243EA020321FA04F001F00041C9
:1042900021FA04F220EA020000EBD3705EEA430E3A
:1042A00008BF20EAD37070BD94F0000F0FD101F069
:1042B0000046400041EB010111F4801F08BF013CA2
:1042C000F7D041EA060195F0000F18BF704703F0E0
:1042D0000046520043EB030313F4801F08BF013D67
:1042E000F7D043EA0603704794EA0C0F0CEA135523
:1042F00018BF95EA0C0F0CD050EA410618BF52EADD
:104300004306D1D181EA030101F000414FF00000E2
:1043100070BD50EA410606BF1046194652EA4306F0
:1043200019D094EA0C0F02D150EA013613D195EA64
:104330000C0F05D152EA03361CBF104619460AD1AC
:1043400081EA030101F0004141F0FE4141F47001B6
:104350004FF0000070BD41F0FE4141F4780170BDA6
:1043600070B54FF0FF0C4CF4E06C1CEA11541DBF0B
:104370001CEA135594EA0C0F95EA0C0F00F0A7F80D
:10438000A4EB050481EA030E52EA03354FEA01313A
:1043900000F088804FEA03334FF0805545EA13134D
:1043A00043EA12634FEA022245EA111545EA106515
:1043B0004FEA00260EF000419D4208BF964244F1AC
:1043C000FD0404F5407402D25B084FEA3202B61ACB
:1043D00065EB03055B084FEA32024FF480104FF49F
:1043E000002CB6EB020E75EB030E22BFB61A754613
:1043F00040EA0C005B084FEA3202B6EB020E75EBA6
:10440000030E22BFB61A754640EA5C005B084FEA0D
:104410003202B6EB020E75EB030E22BFB61A7546DA
:1044200040EA9C005B084FEA3202B6EB020E75EBE5
:10443000030E22BFB61A754640EADC0055EA060EA6
:1044400018D04FEA051545EA16754FEA06164FEAE9
:10445000C30343EA52734FEAC2025FEA1C1CC0D195
:1044600011F4801F0BD141EA00014FF000004FF022
:10447000004CB6E711F4801F04BF01430020B4F1E3
:10448000FD0C88BFBCF5E06F3FF6AFAEB5EB030C9B
:1044900004BFB6EB020C5FEA500C50F1000041EB98
:1044A000045170BD0EF0004E4EEA113114EB5C0465
:1044B000C2BFD4EB0C0541EA045170BD41F4801138
:1044C0004FF0000E013C90E645EA060E8DE60CEA40
:1044D000135594EA0C0F08BF95EA0C0F3FF43BAF5D
:1044E00094EA0C0F0AD150EA01347FF434AF95EA14
:1044F0000C0F7FF425AF104619462CE795EA0C0FF8
:1045000006D152EA03353FF4FDAE1046194622E7C4
:1045100050EA410618BF52EA43067FF4C5AE50EA9E
:1045200041047FF40DAF52EA43057FF4EBAE12E78E
:104530004FF0FF3C06E000BF4FF0010C02E000BF6F
:104540004FF0010C4DF804CD4FEA410C7FEA6C5C52
:104550004FEA430C18BF7FEA6C5C1BD001B050EAF5
:10456000410C0CBF52EA430C91EA030F02BF90EAE0
:10457000020F0020704710F1000F91EA030F58BF9F
:10458000994208BF90422CBFD8176FEAE37040F001
:10459000010070474FEA410C7FEA6C5C02D150EA9F
:1045A000013C07D14FEA430C7FEA6C5CD6D152EA5A
:1045B000033CD3D05DF8040B704700BF844610461F
:1045C00062468C461946634600E000BF01B5FFF71E
:1045D000B7FF002848BF10F1000F01BD4DF808EDEE
:1045E000FFF7F4FF0CBF012000205DF808FB00BFBF
:1045F0004DF808EDFFF7EAFF34BF012000205DF819
:1046000008FB00BF4DF808EDFFF7E0FF94BF012065
:1046100000205DF808FB00BF4DF808EDFFF7CEFF66
:1046200094BF012000205DF808FB00BF4DF808EDA5
:10463000FFF7C4FF34BF012000205DF808FB00BF76
:104640002DE9F041274C2568D5F8484184B007464C
:10465000002C41D066681F2E1CDD234810B94FF096
:10466000FF301FE04FF4C870039102920193AFF343
:1046700000800399029A019B04460028EFD0D5F8E8
:104680004861002060602660C5F84841C4F8880190
:10469000C4F88C01656847B9A81C013544F820109E
:1046A0006560002004B0BDE8F081D4F88861012085
:1046B00004EB850800FA05F00643022FC8F88820AD
:1046C000C4F88861C8F80831E6D1D4F88C3143EADF
:1046D0000002C4F88C21DFE705F5A674C5F848414F
:1046E000B8E700BFE0BB00080000000070B5114B48
:1046F000114C181B811018D004EB81044E1E354656
:1047000054F8042D06F00106904775B126B154F80F
:10471000043D9847013D08D054F8040D8047013D01
:1047200054F8041D8847013DF6D1BDE8704007F0FC
:104730002BB900BFE0080020DC080020F0B484079B
:10474000034600F08E80541E002A00F08880E507A2
:10475000CEB211D41A46671E02F8016B13461546F5
:1047600092070FD0002C7AD003F8016B9A073C46D1
:104770001D4607D0013CEDE7034603F8016B9A079D
:104780001D46F7D1032C52D9CEB246EA06270F2C8C
:1047900047EA07432DD9A4F1100217460F2FC2F3A1
:1047A00000162B606B60AB60EB6005F1100216D950
:1047B0003EB1103F136053609360D36010320F2FEF
:1047C0000DD9203F02F11006136053609360D3604F
:1047D000136153619361D36120320F2FF1D8A4F19B
:1047E000100222F00F0204F00F041032032C1544C3
:1047F0001DD9271F3E462A46032E42F8043BC7F325
:1048000080070DD927B1043E032E42F8043B07D997
:104810001746083E47F8043B53603A1D032EF7D86D
:10482000231F23F00302131D04F00304ED18B4B199
:104830002B46C9B203F8011B2C19ED436219A342A0
:1048400002F001050BD01DB103F8011BA34206D0F5
:104850001A4602F8011B5970531CA342F8D1F0BC50
:104860007047054614468DE70EB470B59DB021AC77
:1048700040F2604354F8042BC2F200036FF000458D
:104880004FF402710646ADF81410049507951868A8
:104890000296234602A94FF6FF750696ADF816500C
:1048A000019400F089FF029B00221A701DB0BDE840
:1048B000704003B0704700BF2DE9F04F2DED028B23
:1048C0009FED857B9DB08DED047B0F9289468346DD
:1048D00017910A46164612F8013B2D2B59D8DFE8EE
:1048E00003F0545858585858585858525252525227
:1048F0005858585858585858585858585858585838
:104900005858525858585858585858585834581792
:10491000721C1792737801211091EBB998469A4650
:104920000022CDF85C9010920F9A0AB1179B136089
:10493000109909B10AF1004A4246534643EC102B44
:104940001DB0BDEC028BBDE8F08F721C179273781E
:1049500000201090002BE1D0302B16461DD173782B
:10496000582B00F0C384782B00F0C084701C0646DE
:10497000179610F8013B302BF9D0002B00F0418343
:10498000012508950BE01792A4E74FF00008C246F6
:10499000C6E70021302B1091E1D0002408942F2B82
:1049A0001D464FF0000A1FDD392B1DDC721C5746D7
:1049B00054460EE007EB870703EB4707303F17929B
:1049C000904612F8013B01342F2B1D460FDD392B89
:1049D0000DDC0F2CF3DC082CECDD0AEB8A0C03EB6E
:1049E0004C01A1F1300AEAE7B04657465446584612
:1049F000CDF80CA004F03AFDD0F800A0584604F021
:104A000035FD006806F062F851460246404606F061
:104A10008DF8DDF80CC08046002800F012810020DF
:104A2000069407908046652D00F09380452D00F098
:104A300090804FF0000A0699002953D0079B069AF0
:104A4000DDF81890CDF80CC0002C18BF2246C3EB3F
:104A50000A0838460A92CDF82080FFF7E1FAB9F14A
:104A6000100FA8BF4FF0100902460B46B9F1090F0D
:104A7000CDE9042315DD1A4C04EBC90555E91223D1
:104A8000FFF744FBDDF80CC0044660460D46FFF717
:104A9000C7FA02460B4620462946FFF785F9CDE9BD
:104AA000040106980F2800F335810899002900F0C9
:104AB000C38040F3A1850899162900F34D85084865
:104AC00000EBC10CDCE90001DDE90423FFF71EFB6C
:104AD00080468A4628E700BF000000000000000072
:104AE000C8BC0008002840F0A7800899002940F0C1
:104AF000A380B8F1000F40F08E82493D252D00F2D1
:104B00008A82DFE815F0E1028802880288028802C2
:104B10007B00880288028802880288028802880254
:104B20008802880288028802880288028802880235
:104B30008802880288028802880288028802880225
:104B4000880288028802E1028802880288028802BC
:104B50007B00069B13B9002800F05982DDF85C90B9
:104B600009F10105179599F801502B2D00F04682A7
:104B70002D2D00F03B8200210A91A5F13001092979
:104B800000F22382302D06D1179B5A1C179212F87F
:104B9000015B302DFAD0A5F1310108293FF649AF6C
:104BA000DDF85CE00EF101011791A5F130029EF8ED
:104BB00001502F2D12DD392D10DC0EF1020301E022
:104BC000392D0BDC179302EB820205EB42021D78B4
:104BD000303A2F2D194603F10103F1DCCEEB01032E
:104BE000082B44F61F6A02DC5245B8BF92460A9A67
:104BF000002A3FF420AFCAF1000A1CE76248179A66
:104C000009E05B780132402B02DD5A2BD8BF2033FC
:104C10008B4240F0008210F8011F13460029F0D1AA
:104C2000501C17905278282A00F08F8500210B46DF
:104C3000CFF6F87305930491DDF81080DDF814A029
:104C400072E65846179D04F011FC006805F03EFF1F
:104C50002A1817922D5CDDF80CC0002C40F0BA81A8
:104C6000302D204605D10132179215780130302DB4
:104C7000F9D0A5F13101082900F22082179E079092
:104C800000200690B2460120A5F13001002900F075
:104C9000E483079D012805EB0002079200F0508590
:104CA000069A1518013DD3435B1903F0010E531CFE
:104CB000102A08DC092BCBBF0CEB8C0C07EB870709
:104CC0004FEA4C0C7F00AB4200F0B483BEF1000F02
:104CD00016D001335A1E102A0FDC05E007EB8707B8
:104CE0007F00531C102A08DC092BCBBF0CEB8C0C6B
:104CF00007EB87074FEA4C0C7F00AB4200F09A832A
:104D00005A1C102BEDDC092AE8DD0CEB8C0E4FEA67
:104D10004E0CE6E706980899C9EB00098944B9F1F9
:104D2000000F40F3BF8319F00F040AD0174A02EBBB
:104D3000C400D0E90001DDE90423FFF7E7F9CDE97C
:104D4000040139F00F0440F06B81DDF81080DDF8CC
:104D500014A007943146009758460A9A069B05F01E
:104D60002BF8089E0E90002EC0F23A8400270A9776
:104D70000E99089CCDF818A00C3124EAE472119128
:104D80000B92C24674E000BFEFBB0008C8BC00082D
:104D90000C99002900F0CA8100220025C3F6F072A8
:104DA000DDF814C00D960024C3F6F07508920026B5
:104DB0000021C7F6F0760CEA0606C7F6E0718E42CF
:104DC00000F0E781079B13B3B6F1D46F1FD80D989D
:104DD00008990FF26853D3E90023FFF713FC98B149
:104DE0000D98089906F0C4FA002800F07982FFF7C0
:104DF00017F90D9008910C98002840F06F820899DF
:104E000001F100420D9C154605F1D6639D1B069BE2
:104E1000524643EC102B05F06FFC204653EC102B50
:104E20002946FFF773F9069D02460B465046294670
:104E3000FEF7BAFFCDE90401059C06918246079B67
:104E400033B90020C7F6F0702040864200F0DF81C1
:104E50005846189904F02AFF5846394604F026FFB0
:104E60005846494604F022FF5846414604F01EFFCA
:104E70000E9D5846696804F0F3FE0E9E1199336941
:104E80000746981C820007F10C0004F043FE069BC5
:104E9000524643EC102B16A919AA584605F0B8FC47
:104EA00001211890584605F073F8169A002A814699
:104EB000C0F236810A9C0B98A418079D199B561BBB
:104EC000F2186FF47F718A42B4BF06F23343C3F124
:104ED0003603E618C018079BA642B4BF32462246E6
:104EE000C518AA42A8BF2A46002A02DDB61AAD1A82
:104EF000A41A0A9989B10A465846494605F0BAF9F2
:104F000081464946189A584605F04CF8189980464B
:104F1000584604F0CBFECDF86080002E05DD5846E3
:104F20001899324605F0F0F918900B9828B13946D7
:104F300058460B9A05F09EF90746002D05DD3946C7
:104F400058462A4605F0E0F90746002C05DD49469B
:104F50005846224605F0D8F9814618993A465846EF
:104F600005F0C4FA0026C368C660494680460C9323
:104F700005F08EFAB042C0F2E78100F0358240467B
:104F8000494605F09FFC55EC104B10EE100A2946DF
:104F900000224FF08043FFF735FB00287FF4F8AE86
:104FA0000023294620460022C3F6E073FFF7AEF83F
:104FB0000C9D0D900891002D40F0B68001F100424B
:104FC0000D9CDDF814C01546F1E6CDF85C904FF06D
:104FD000000A30E540460694CDF81C80A5F130016A
:104FE000092911D80130DDF85CA04FE601230A93AE
:104FF00009F10205179599F80250BEE500220A92C0
:10500000F6E798469A468FE44FF001080BE5089AB8
:10501000002A7FF4A3ADDDF81080DDF814A07FE452
:10502000B4F59A7F00F331822411012CDFF8148348
:1050300040F38483DDE90401C146002514F0010F2B
:1050400005F101054FEA640403D0D9E90023FFF715
:105050005DF8012C09F10809F0DC02460B46CDE9A8
:1050600004230599A1F15473059308EBC505DDE907
:105070000423D5E90001FFF749F8CDE904010599BA
:1050800000200022C7F6F0700840C7F6A042904208
:1050900000F2FB810024C7F69044A04240F2168340
:1050A0004FF6FF710C46C7F6EF744FF0FF32002544
:1050B000059404929046A24607954BE6002306937A
:1050C00007934FF00108AEE49948179A08E05B781F
:1050D0000132402B02DD5A2BD8BF20338B429AD1AC
:1050E00010F8011F13460029F1D1924C1792114676
:1050F00014F8010F0B46002800F024835B7801317F
:10510000402B02DD5A2BD8BF20338342F0D0501CF5
:10511000179000231A46C7F6F072059204938BE5A8
:105120000B990A9C881AC8E6089A49E70498DDF8A2
:1051300014C0002840F0A880CCF31306FEB9002369
:10514000204629460022C3F6F073CDF80CC0FFF7C5
:105150004FFADDF80CC0002840F0B2810023294648
:1051600000222046C3F6E073FEF7D0FFDDF80CC046
:105170000D900891024601F10045144617E6002300
:1051800000250D93C3F6F0730024CBF6F075089359
:105190000DE6ACF1547ECDF814E09DED048B069B3A
:1051A000B0EE480AF0EE680A19465046CDE9120101
:1051B00005F0A2FA204653EC102B2946FEF7A6FF75
:1051C00002460B4651EC180BFEF7EEFDCDE904014B
:1051D000059C0020C7F6F0704FF6FF722040C7F61E
:1051E0009F42904273D94FF6FF701399C7F6EF7044
:1051F000814200F038814FF6FF763546C7F6EF75ED
:105200004FF0FF32059504929246069520E60899E4
:105210000D9806F085F8FEF713FF0D9ACDE91401FD
:1052200008991046DDE91423FEF7BCFD0C9BCDE97F
:105230000801002B37D1049A002A34D1C4F3130497
:10524000002C30D134A3D3E90023FFF7D1F9002893
:105250003FF4FEAD4446D046DDF818A058461899F4
:1052600004F024FD5846394604F020FD58464946CE
:1052700004F01CFD58460E9904F018FD58462146CE
:1052800004F014FDFFF750BB01287FF478AF6146AE
:1052900000297FF474AF44464FF000082223CBF876
:1052A0000030C246DAE7DDE908011DA3D3E9002397
:1052B000FFF79EF90028CDD1DDE908011AA3D3E953
:1052C0000023FFF7B3F900283FF4C2ADC2E704F1B1
:1052D00054740594DDF810A00694B0E5089A91E5A1
:1052E0000024C3F6F0740D90089484E5109C124DD0
:1052F000019418A90091584617A92A4619AB03F042
:1053000077FC10F00707044640F0E480B846BA4640
:10531000FFF70ABBAFF300809535A094FFFFCF3FA6
:105320009535A094FFFFDF3F35E5AF350000E03F46
:10533000E3BB0008E7BB0008640400200000C0FFD6
:10534000FFFFDF4190BD00080C98444688BB0499DC
:1053500079BB059AC2F313035BBB3046C7F6F07006
:105360001040B0F1D66F24D9D8F8141019B9D8F874
:105370001020012A1DDD21460122584604F0C4FFF9
:105380004946044605F084F8002812DD079B002BEF
:1053900040F0C681059820F000410A0D1205A2F5E3
:1053A00080136FEA13506FEA00514FF0FF320591FE
:1053B0000492079800287ED000210A46C3F65012B6
:1053C00012911392DDE90401DDE91223FEF79EFE3E
:1053D00080468A4600297FF441AF00287FF43EAF23
:1053E0002222CBF8002039E70C984446D046DDF85D
:1053F00018A0002800F0CF80059A4FF6FF7322F026
:105400007F4121F47000C0F20F039842049900F02C
:105410006781CB07CDD54246534643EC102B05F0B0
:105420006BF94046514653EC102BFEF7BDFCCDE91D
:105430000401BEE7069D2818431E5A1C102B069235
:1054400000F34281092AD5BF07EB87070CEB8C0CD0
:1054500001EB470701EB4C0C00200AF10101179109
:105460009AF80150BAE5129B5A1C7FF4C4AE002092
:105470000146C7F6F0710591222344460490CBF80B
:1054800000308046DDF814A0E8E600200146C7F6AB
:10549000F071222205910490CBF8002080468A46C4
:1054A000FFF742BA40F0BA80DDF81080DDF814A0B2
:1054B000CDF81C904EE4DDF81080DDF814A0CDE6A8
:1054C00000252C460C9AC3F6E074CBF6E0750D92DD
:1054D000089452E6062F00F08880189A3AB129689D
:1054E0001AA805F01DFA5846189904F0DFFB199B1D
:1054F000062F0BD8DFE807F02C211C1504212C0007
:105500006FF000404FF0FF320590049222077FF5C4
:1055100093AB0599DDF8108041F000408246FFF71B
:1055200003BA00210B46C7F6F07305930491EDE72B
:105530001A9A1B9904920591E8E71B9A1A9803F2AC
:10554000334322F48011049041EA03500590DDE7D3
:10555000002305930493D9E7069A089BC2F125041A
:10556000A3423FF7D7AB8A4CC2F10F0804EBC80047
:10557000DDE90423D0E90001FEF7C8FD089BC8EB74
:10558000030204EBC204D4E90023FEF7BFFD80460A
:105590008A46FFF7C9B90599C1F31302002A40F002
:1055A0009180049B002B3FF4F1AEDA077FF501AF49
:1055B0004246534643EC102B05F09EF8404653EC10
:1055C000102B5146FEF7EEFB02460B46CDE90423B5
:1055D00000220023FFF702F800287FF45DAEE8E622
:1055E000089B58420A90FFF7C3BB01364FF00008F2
:1055F0001796C246FFF798B9089B1633FFF68AAB99
:10560000634A0898A2EBC00ADAE90023DDE9040145
:10561000FEF7A6FE80468A46FFF786B9C9F1000468
:1056200014F00F030AD05A4A02EBC303DDE9040168
:10563000D3E90023FEF794FECDE9040124113FF4E1
:1056400084AB1F2C36DC14F0100F14BF6A2000202E
:10565000002C07900FDDDDE904014E4DE30703D573
:10566000D5E90023FEF752FD08356410F6D1024655
:105670000B46CDE90423079979B1059AC2F30A5381
:10568000C3F16B03002B08DD1F2B70DD0020342BD2
:10569000049074DD4FF05C72059204980599DDF872
:1056A0001080DDF814A000220023FEF797FF0028E9
:1056B0003FF450AB4FF000082223CBF80030C24635
:1056C000FFF732B9049B70E70020C6E601F154757C
:1056D00000200595DDF810800790AA46FFF73ABB39
:1056E000079BD3B10020C7F6F0701040B0F1D46F23
:1056F00013D8000DC0F16B034FF0FF3000FA03F335
:1057000099427FF486AE0021C7F6F071114001F591
:1057100080120023059204934BE64FF0FF33EFE72E
:10572000059B23F00040010D0A05B2F1D66F3FF64C
:1057300036AEB2F15C7F3FF63FAEADE5002590E4BA
:10574000069B7AE64A1C1792E3E417A812491AAAA4
:1057500003F014FD05287FF469AA1B9A1A9842F0F9
:10576000FF4141F4E00305930490FFF765BA049A02
:105770004FF0FF3000FA03F10A4004928DE7203B1E
:105780004FF0FF3101FA03F31340059385E700BFA3
:10579000C8BC0008F8BB000878040020AFF3008004
:1057A00010B440F26043C2F20003044618680A468F
:1057B000214610BCFFF780B82DE9F04FBFB014466A
:1057C00006910C93089003F051FE00680F9005F0CD
:1057D0007DF911900698838903F080010AB20020B8
:1057E0000021CDE9120122B106980369002B01F0D6
:1057F000CC8200202EABDFF800950D90039321930F
:1058000023902290A246149015900B901E469AF871
:105810000040002C00F09C81252C00F099810AF1B9
:10582000010501E0252904D02C4601352178002905
:10583000F8D1CAEB04057DB1229B239AC6F800A0DB
:10584000591C5019072975602390229100F3648137
:1058500008360B9A50190B902378002B00F06481C6
:1058600000224FF0FF3194F801800591099204F174
:10587000010A8DF86320049220202B210AF1010AED
:10588000A8F12003582B00F2BB82DFE813F0FD01E2
:10589000B902B9020702B902B902B902B902B902E2
:1058A000B902B3015002B9023E010E02B902C702A9
:1058B000CE02CE02CE02CE02CE02CE02CE02CE0268
:1058C000CE02B902B902B902B902B902B902B902EB
:1058D000B902B902B90284008001B9028001B9029B
:1058E000B902B902B9024902B902B9026D00B9029E
:1058F000B902B902B902B9025900B902B902DF010D
:10590000B902B902B902B902B902B902B902B902BF
:10591000B902B90237028800800180018001890242
:105920008800B902B902AD02B902550271009002B5
:10593000A602B9026302B9025D00B902B902BF0151
:10594000049D45F010040494049B9D0600F1918190
:105950000499CC0641F198800C9A1568171D2C46C5
:105960000C970025012312E0049A42F010050495DB
:10597000049F17F0200340F0FF80049C14F01000F7
:1059800001F074800C9F3A1D3C680C9200250027A2
:105990008DF8637017E0049D45F010030493049F95
:1059A000BF0640F1D7800C9DEB1D23F00700D0E926
:1059B000002308300C9014461D46002A73F10000A5
:1059C000C0F2358701230599002903DB049F27F0E6
:1059D0008000049054EA050240F0F383059A002AFF
:1059E00040F0EF83002B40F05986049BD90741F12A
:1059F0000E803EAF302007F8410D039AD41B0A9465
:105A0000059C0A989DF863300E94A042B8BF2046CA
:105A100000220790109213B1079B591C0791049B19
:105A200013F00200059002D007998C1C0794049A89
:105A300012F0840B40F02A82099D079BED1A002D7D
:105A400040F32482102D41F30E82239A229BA54914
:105A500010243160169111195A1CA5F1110E072A54
:105A60007460CEF300132391229200F372850836FE
:105A7000103D102D40F3FE818BB101324BF6744383
:105A80001031C0F60003072A86E8180023912292FD
:105A900000F36E850836103D102D40F3EB81334640
:105AA000CDF85CB02E46BB46069D089F13E0083338
:105AB00001324BF674401031C0F60000103E072A48
:105AC00083E811002391229200F3C081103E083335
:105AD000102E40F3CA8101324BF674401031C0F6EB
